{
    "contractName": "ITManTokenCrowdsale",
    "abi": [
        {
            "inputs": [
                {
                    "internalType": "uint256",
                    "name": "_rate",
                    "type": "uint256"
                },
                {
                    "internalType": "address payable",
                    "name": "_wallet",
                    "type": "address"
                },
                {
                    "internalType": "contract ERC20",
                    "name": "_token",
                    "type": "address"
                },
                {
                    "internalType": "address",
                    "name": "_tokenWallet",
                    "type": "address"
                },
                {
                    "internalType": "uint256",
                    "name": "_openingTime",
                    "type": "uint256"
                },
                {
                    "internalType": "uint256",
                    "name": "_closingTime",
                    "type": "uint256"
                }
            ],
            "stateMutability": "nonpayable",
            "type": "constructor"
        },
        {
            "anonymous": false,
            "inputs": [
                {
                    "indexed": false,
                    "internalType": "uint256",
                    "name": "prevClosingTime",
                    "type": "uint256"
                },
                {
                    "indexed": false,
                    "internalType": "uint256",
                    "name": "newClosingTime",
                    "type": "uint256"
                }
            ],
            "name": "TimedCrowdsaleExtended",
            "type": "event"
        },
        {
            "anonymous": false,
            "inputs": [
                {
                    "indexed": true,
                    "internalType": "address",
                    "name": "purchaser",
                    "type": "address"
                },
                {
                    "indexed": true,
                    "internalType": "address",
                    "name": "beneficiary",
                    "type": "address"
                },
                {
                    "indexed": false,
                    "internalType": "uint256",
                    "name": "value",
                    "type": "uint256"
                },
                {
                    "indexed": false,
                    "internalType": "uint256",
                    "name": "amount",
                    "type": "uint256"
                }
            ],
            "name": "TokensPurchased",
            "type": "event"
        },
        {
            "inputs": [
                {
                    "internalType": "address",
                    "name": "beneficiary",
                    "type": "address"
                }
            ],
            "name": "buyTokens",
            "outputs": [],
            "stateMutability": "payable",
            "type": "function"
        },
        {
            "inputs": [],
            "name": "cap",
            "outputs": [
                {
                    "internalType": "uint256",
                    "name": "",
                    "type": "uint256"
                }
            ],
            "stateMutability": "view",
            "type": "function"
        },
        {
            "inputs": [],
            "name": "capReached",
            "outputs": [
                {
                    "internalType": "bool",
                    "name": "",
                    "type": "bool"
                }
            ],
            "stateMutability": "view",
            "type": "function"
        },
        {
            "inputs": [],
            "name": "closingTime",
            "outputs": [
                {
                    "internalType": "uint256",
                    "name": "",
                    "type": "uint256"
                }
            ],
            "stateMutability": "view",
            "type": "function"
        },
        {
            "inputs": [
                {
                    "internalType": "address",
                    "name": "",
                    "type": "address"
                }
            ],
            "name": "contributions",
            "outputs": [
                {
                    "internalType": "uint256",
                    "name": "",
                    "type": "uint256"
                }
            ],
            "stateMutability": "view",
            "type": "function"
        },
        {
            "inputs": [],
            "name": "crowdCap",
            "outputs": [
                {
                    "internalType": "uint256",
                    "name": "",
                    "type": "uint256"
                }
            ],
            "stateMutability": "view",
            "type": "function"
        },
        {
            "inputs": [],
            "name": "hasClosed",
            "outputs": [
                {
                    "internalType": "bool",
                    "name": "",
                    "type": "bool"
                }
            ],
            "stateMutability": "view",
            "type": "function"
        },
        {
            "inputs": [],
            "name": "investorHardCap",
            "outputs": [
                {
                    "internalType": "uint256",
                    "name": "",
                    "type": "uint256"
                }
            ],
            "stateMutability": "view",
            "type": "function"
        },
        {
            "inputs": [],
            "name": "investorMinCap",
            "outputs": [
                {
                    "internalType": "uint256",
                    "name": "",
                    "type": "uint256"
                }
            ],
            "stateMutability": "view",
            "type": "function"
        },
        {
            "inputs": [],
            "name": "isOpen",
            "outputs": [
                {
                    "internalType": "bool",
                    "name": "",
                    "type": "bool"
                }
            ],
            "stateMutability": "view",
            "type": "function"
        },
        {
            "inputs": [],
            "name": "openingTime",
            "outputs": [
                {
                    "internalType": "uint256",
                    "name": "",
                    "type": "uint256"
                }
            ],
            "stateMutability": "view",
            "type": "function"
        },
        {
            "inputs": [],
            "name": "rate",
            "outputs": [
                {
                    "internalType": "uint256",
                    "name": "",
                    "type": "uint256"
                }
            ],
            "stateMutability": "view",
            "type": "function"
        },
        {
            "inputs": [],
            "name": "remainingTokens",
            "outputs": [
                {
                    "internalType": "uint256",
                    "name": "",
                    "type": "uint256"
                }
            ],
            "stateMutability": "view",
            "type": "function"
        },
        {
            "inputs": [],
            "name": "token",
            "outputs": [
                {
                    "internalType": "contract IERC20",
                    "name": "",
                    "type": "address"
                }
            ],
            "stateMutability": "view",
            "type": "function"
        },
        {
            "inputs": [],
            "name": "tokenWallet",
            "outputs": [
                {
                    "internalType": "address",
                    "name": "",
                    "type": "address"
                }
            ],
            "stateMutability": "view",
            "type": "function"
        },
        {
            "inputs": [],
            "name": "wallet",
            "outputs": [
                {
                    "internalType": "address payable",
                    "name": "",
                    "type": "address"
                }
            ],
            "stateMutability": "view",
            "type": "function"
        },
        {
            "inputs": [],
            "name": "weiRaised",
            "outputs": [
                {
                    "internalType": "uint256",
                    "name": "",
                    "type": "uint256"
                }
            ],
            "stateMutability": "view",
            "type": "function"
        },
        {
            "stateMutability": "payable",
            "type": "receive"
        }
    ],
    "bytecode": "608060405266b1a2bc2ec500006009556729a2241af62c0000600a556802b5e3af16b1880000600b553480156200003557600080fd5b50604051620011113803806200111183398101604081905262000058916200039d565b600b54600160005582828589898982620000b95760405162461bcd60e51b815260206004820152601460248201527f43726f776473616c653a2072617465206973203000000000000000000000000060448201526064015b60405180910390fd5b6001600160a01b0382166200011f5760405162461bcd60e51b815260206004820152602560248201527f43726f776473616c653a2077616c6c657420697320746865207a65726f206164604482015264647265737360d81b6064820152608401620000b0565b6001600160a01b038116620001835760405162461bcd60e51b8152602060048201526024808201527f43726f776473616c653a20746f6b656e20697320746865207a65726f206164646044820152637265737360e01b6064820152608401620000b0565b600392909255600280546001600160a01b03199081166001600160a01b0393841617909155600180549091169282169290921790915581166200022f5760405162461bcd60e51b815260206004820152603460248201527f416c6c6f77616e636543726f776473616c653a20746f6b656e2077616c6c657460448201527f20697320746865207a65726f20616464726573730000000000000000000000006064820152608401620000b0565b600580546001600160a01b0319166001600160a01b039290921691909117905542821015620002b65760405162461bcd60e51b81526020600482015260336024820152600080516020620010f183398151915260448201527f6265666f72652063757272656e742074696d65000000000000000000000000006064820152608401620000b0565b8181116200031c5760405162461bcd60e51b81526020600482015260376024820152600080516020620010f183398151915260448201527f6e6f74206265666f726520636c6f73696e672074696d650000000000000000006064820152608401620000b0565b60069190915560075580620003745760405162461bcd60e51b815260206004820152601960248201527f43617070656443726f776473616c653a206361702069732030000000000000006044820152606401620000b0565b600855506200040d945050505050565b6001600160a01b03811681146200039a57600080fd5b50565b60008060008060008060c08789031215620003b757600080fd5b865195506020870151620003cb8162000384565b6040880151909550620003de8162000384565b6060880151909450620003f18162000384565b809350506080870151915060a087015190509295509295509295565b610cd4806200041d6000396000f3fe6080604052600436106101025760003560e01c8063521eb27311610095578063bf58390311610064578063bf5839031461026c578063bff99c6c14610281578063ec8ac4d81461029f578063ed5db874146102ad578063fc0c546a146102c357600080fd5b8063521eb273146101f9578063543b6cd71461022b578063b25d7f5414610241578063b7a8807c1461025757600080fd5b806342e94c90116100d157806342e94c901461018d57806347535d7b146101ba5780634b6753bc146101cf5780634f935945146101e457600080fd5b80631515bc2b1461011c5780632c4e722e14610144578063355274ea146101635780634042b66f1461017857600080fd5b3661011757610115336102e1565b6102e1565b005b600080fd5b34801561012857600080fd5b5060075442115b60405190151581526020015b60405180910390f35b34801561015057600080fd5b506003545b60405190815260200161013b565b34801561016f57600080fd5b50600854610155565b34801561018457600080fd5b50600454610155565b34801561019957600080fd5b506101556101a8366004610b19565b600c6020526000908152604090205481565b3480156101c657600080fd5b5061012f6103d3565b3480156101db57600080fd5b50600754610155565b3480156101f057600080fd5b5061012f6103ee565b34801561020557600080fd5b506002546001600160a01b03165b6040516001600160a01b03909116815260200161013b565b34801561023757600080fd5b50610155600b5481565b34801561024d57600080fd5b5061015560095481565b34801561026357600080fd5b50600654610155565b34801561027857600080fd5b50610155610403565b34801561028d57600080fd5b506005546001600160a01b0316610213565b610115610110366004610b19565b3480156102b957600080fd5b50610155600a5481565b3480156102cf57600080fd5b506001546001600160a01b0316610213565b600260005414156103395760405162461bcd60e51b815260206004820152601f60248201527f5265656e7472616e637947756172643a207265656e7472616e742063616c6c0060448201526064015b60405180910390fd5b600260005534610349828261050b565b60006103548261053d565b9050816004546103649190610b58565b6004556103718382610560565b60408051838152602081018390526001600160a01b0385169133917f6faf93231a456e552dbc9961f58d9713ee4f2e69d15f1975b050ef0911053a7b910160405180910390a36103c1838361056a565b6103c9610679565b5050600160005550565b600060065442101580156103e957506007544211155b905090565b60006008546103fc60045490565b1015905090565b60006103e961041a6001546001600160a01b031690565b6005546040516370a0823160e01b81526001600160a01b0391821660048201529116906370a0823190602401602060405180830381865afa158015610463573d6000803e3d6000fd5b505050506040513d601f19601f820116820180604052508101906104879190610b70565b6001546001600160a01b0316600554604051636eb1769f60e11b81526001600160a01b03918216600482015230602482015291169063dd62ed3e90604401602060405180830381865afa1580156104e2573d6000803e3d6000fd5b505050506040513d601f19601f820116820180604052508101906105069190610b70565b6106b5565b6105136103d3565b61052f5760405162461bcd60e51b815260040161033090610b89565b61053982826106cd565b5050565b60006103e8600354836105509190610bc0565b61055a9190610bdf565b92915050565b610539828261073b565b6105726103d3565b61058e5760405162461bcd60e51b815260040161033090610b89565b6001600160a01b0382166000908152600c6020526040812054906105b28284610745565b90506009548110156106065760405162461bcd60e51b815260206004820152601d60248201527f43726f776473616c653a20556e646572204d696e696d756d20436170210000006044820152606401610330565b600a548111156106585760405162461bcd60e51b815260206004820152601c60248201527f43726f776473616c653a204f766572204d6178696d756e2043617021000000006044820152606401610330565b6001600160a01b039093166000908152600c60205260409020929092555050565b6002546040516001600160a01b03909116903480156108fc02916000818181858888f193505050501580156106b2573d6000803e3d6000fd5b50565b60008183106106c457816106c6565b825b9392505050565b6106d78282610751565b6008546106ed826106e760045490565b90610745565b11156105395760405162461bcd60e51b815260206004820152601d60248201527f43617070656443726f776473616c653a206361702065786365656465640000006044820152606401610330565b610539828261077f565b60006106c68284610b58565b6107596103d3565b6107755760405162461bcd60e51b815260040161033090610b89565b61053982826107b4565b600554610539906001600160a01b031683836107a36001546001600160a01b031690565b6001600160a01b031692919061086a565b6001600160a01b03821661081d5760405162461bcd60e51b815260206004820152602a60248201527f43726f776473616c653a2062656e656669636961727920697320746865207a65604482015269726f206164647265737360b01b6064820152608401610330565b806105395760405162461bcd60e51b815260206004820152601960248201527f43726f776473616c653a20776569416d6f756e742069732030000000000000006044820152606401610330565b604080516001600160a01b0385811660248301528416604482015260648082018490528251808303909101815260849091019091526020810180516001600160e01b03166323b872dd60e01b1790526108c49085906108ca565b50505050565b600061091f826040518060400160405280602081526020017f5361666545524332303a206c6f772d6c6576656c2063616c6c206661696c6564815250856001600160a01b03166109a19092919063ffffffff16565b80519091501561099c578080602001905181019061093d9190610c01565b61099c5760405162461bcd60e51b815260206004820152602a60248201527f5361666545524332303a204552433230206f7065726174696f6e20646964206e6044820152691bdd081cdd58d8d9595960b21b6064820152608401610330565b505050565b60606109b084846000856109b8565b949350505050565b606082471015610a195760405162461bcd60e51b815260206004820152602660248201527f416464726573733a20696e73756666696369656e742062616c616e636520666f6044820152651c8818d85b1b60d21b6064820152608401610330565b843b610a675760405162461bcd60e51b815260206004820152601d60248201527f416464726573733a2063616c6c20746f206e6f6e2d636f6e74726163740000006044820152606401610330565b600080866001600160a01b03168587604051610a839190610c4f565b60006040518083038185875af1925050503d8060008114610ac0576040519150601f19603f3d011682016040523d82523d6000602084013e610ac5565b606091505b5091509150610ad5828286610ae0565b979650505050505050565b60608315610aef5750816106c6565b825115610aff5782518084602001fd5b8160405162461bcd60e51b81526004016103309190610c6b565b600060208284031215610b2b57600080fd5b81356001600160a01b03811681146106c657600080fd5b634e487b7160e01b600052601160045260246000fd5b60008219821115610b6b57610b6b610b42565b500190565b600060208284031215610b8257600080fd5b5051919050565b60208082526018908201527f54696d656443726f776473616c653a206e6f74206f70656e0000000000000000604082015260600190565b6000816000190483118215151615610bda57610bda610b42565b500290565b600082610bfc57634e487b7160e01b600052601260045260246000fd5b500490565b600060208284031215610c1357600080fd5b815180151581146106c657600080fd5b60005b83811015610c3e578181015183820152602001610c26565b838111156108c45750506000910152565b60008251610c61818460208701610c23565b9190910192915050565b6020815260008251806020840152610c8a816040850160208701610c23565b601f01601f1916919091016040019291505056fea2646970667358221220f07afb934a0d98cf17b18120a47a96ddefff6f61fc07159d79704f921a843ad164736f6c634300080b003354696d656443726f776473616c653a206f70656e696e672074696d6520697320",
    "sourcePath": "/home/rodrigo/Documents/crypto/tbtcs-crowdsale/contracts/ITManTokenCrowdsale.sol",
    "compiler": {
        "name": "solc",
        "version": "0.8.11+commit.d7f03943"
    },
    "functionHashes": {
        "buyTokens(address)": "ec8ac4d8",
        "cap()": "355274ea",
        "capReached()": "4f935945",
        "closingTime()": "4b6753bc",
        "contributions(address)": "42e94c90",
        "crowdCap()": "543b6cd7",
        "hasClosed()": "1515bc2b",
        "investorHardCap()": "ed5db874",
        "investorMinCap()": "b25d7f54",
        "isOpen()": "47535d7b",
        "openingTime()": "b7a8807c",
        "rate()": "2c4e722e",
        "remainingTokens()": "bf583903",
        "token()": "fc0c546a",
        "tokenWallet()": "bff99c6c",
        "wallet()": "521eb273",
        "weiRaised()": "4042b66f"
    },
    "gasEstimates": {
        "creation": {
            "codeDepositCost": "656800",
            "executionCost": "infinite",
            "totalCost": "infinite"
        },
        "external": {
            "buyTokens(address)": "infinite",
            "cap()": "2360",
            "capReached()": "4523",
            "closingTime()": "2359",
            "contributions(address)": "2507",
            "crowdCap()": "2340",
            "hasClosed()": "2305",
            "investorHardCap()": "2383",
            "investorMinCap()": "2362",
            "isOpen()": "4496",
            "openingTime()": "2381",
            "rate()": "2327",
            "remainingTokens()": "infinite",
            "token()": "2441",
            "tokenWallet()": "2375",
            "wallet()": "2343",
            "weiRaised()": "2382"
        },
        "internal": {
            "_deliverTokens(address,uint256)": "infinite",
            "_preValidatePurchase(address,uint256)": "infinite",
            "_updatePurchasingState(address,uint256)": "infinite"
        }
    }
}